:100000000C9472000C9493000C9493000C94930045
:100010000C9493000C9493000C9493000C94930014
:100020000C9493000C9493000C9493000C94930004
:100030000C9493000C9493000C9493000C949300F4
:100040000C9493000C9493000C9493000C949300E4
:100050000C9493000C9493000C9493000C949300D4
:100060000C9493000C9493000C9493000C949300C4
:100070000C9493000C9493000C9493000C949300B4
:100080000C9493000C9493000C9493000C949300A4
:100090000C9493000C9493000C9493000C94930094
:1000A0000C9493000C9493000C9493000C94930084
:1000B0000C9493000C9493000C9493000C94930074
:1000C0000C9493000C9493000C9493000C94930064
:1000D0000C9493000C9493000C9493000C94930054
:1000E0000C94930011241FBECFEFD1E2DEBFCDBF31
:1000F00000E00CBF12E0A0E0B2E0EEE6F3E000E0CA
:100100000BBF02C007900D92A030B107D9F712E0E3
:10011000A0E0B2E001C01D92A030B107E1F70E945B
:10012000FA000C94B5010C94000081B18F6081B984
:1001300082B1807F82B9EAE0F1E0808188618083CA
:10014000EBE0F1E080818861808308950E94950052
:100150000895E1E2F1E010828FEF8093250191E0B4
:1001600090932401109229018093280110922B0171
:1001700080932A0110922D0180932C0189EA8093AB
:1001800020018BE0808308958093280160932A01E9
:10019000089592B1907F8F70982B92B9089586E060
:1001A0000E94C900089589E00E94C900089585E071
:1001B0000E94C90008958AE00E94C900089584E061
:1001C0000E94C900089582E00E94C900089581E05C
:1001D0000E94C900089588E00E94C900089580E047
:1001E0000E94C9000895F8940E94A6000E94A900E8
:1001F000789408950E94F30084E664E60E94C400A7
:100200000E94CF008FEF9FEFACE281509040A04062
:10021000E1F700C000000E94EF008FEF9FE7A6E12A
:1002200081509040A040E1F700C000008FEF6FEFD9
:100230000E94C4000E94D3008FEF9FEFACE2815078
:100240009040A040E1F700C000000E94EF008FEF57
:100250009FE7A6E181509040A040E1F700C0000078
:100260000E94D7008FEF9FEFACE281509040A040FA
:10027000E1F700C000000E94EF008FEF9FE7A6E1CA
:1002800081509040A040E1F700C000000E94DB00D8
:100290008FEF9FEFACE281509040A040E1F700C0AB
:1002A00000000E94EF008FEF9FE7A6E18150904091
:1002B000A040E1F700C000000E94DF008FEF9FEF39
:1002C000ACE281509040A040E1F700C000000E94E5
:1002D000EF008FEF9FE7A6E181509040A040E1F74B
:1002E00000C000000E94E3008FEF9FEFACE281505E
:1002F0009040A040E1F700C000000E94EF008FEFA7
:100300009FE7A6E181509040A040E1F700C00000C7
:100310000E94E7008FEF9FEFACE281509040A04039
:10032000E1F700C000000E94EF008FEF9FE7A6E119
:1003300081509040A040E1F700C000000E94EB0017
:100340008FEF9FEFACE281509040A040E1F700C0FA
:1003500000000E94EF008FEF9FEFACE281509040D1
:0E036000A040E1F700C0000047CFF894FFCFA7
:00000001FF
