:100000000C9472000C9493000C9493000C94930045
:100010000C9493000C9493000C9493000C94930014
:100020000C9493000C9493000C9493000C94930004
:100030000C9493000C9493000C9493000C949300F4
:100040000C9493000C9493000C9493000C949300E4
:100050000C9493000C9493000C9493000C949300D4
:100060000C9493000C9493000C9493000C949300C4
:100070000C9493000C9493000C9493000C949300B4
:100080000C9493000C9493000C9493000C949300A4
:100090000C9493000C9493000C9493000C94930094
:1000A0000C9493000C9493000C9493000C94930084
:1000B0000C9493000C9493000C9493000C94930074
:1000C0000C9493000C9493000C9493000C94930064
:1000D0000C9493000C9493000C9493000C94930054
:1000E0000C94930011241FBECFEFD1E2DEBFCDBF31
:1000F00000E00CBF12E0A0E0B2E0ECEBF6E000E0C4
:100100000BBF02C007900D92A030B107D9F712E0E3
:10011000A0E0B2E001C01D92A431B107E1F70E9456
:100120009F020C945C030C94000086E69EE001970D
:10013000F1F700004098419880E388B9429AEFEFC8
:10014000F7E43197F1F700C000004298E6E6FEE0E0
:100150003197F1F700004098419888B9429AEFEF43
:10016000F7E43197F1F700C000004298E6E6FEE0C0
:100170003197F1F700004098419888B9429A8FEF83
:1001800097E40197F1F700C000004298E6E6FEE030
:100190003197F1F700004098419880E288B9429A7F
:1001A0008FEF97E40197F1F700C00000429808959F
:1001B00098B19F7098B998B1282F207F922B98B949
:1001C00040984198429AEFEFF7E43197F1F700C079
:1001D0000000429898B19F7098B998B18295807F3D
:1001E000892B88B940984198429A8FEF97E40197FC
:1001F000F1F700C00000429808950E94950086E63D
:100200009EE00197F1F7000088E20E94D80081E0AB
:100210000E94D80086E00E94D8008EE00E94D8009C
:1002200080E80E94D800089598B19F7098B998B15D
:10023000282F207F922B98B9409A4198429AEFEF4D
:10024000F7E43197F1F700C00000429898B19F7031
:1002500098B998B18295807F892B88B9409A419846
:10026000429A8FEF97E40197F1F700C0000042989F
:10027000089580E80E94D8000895CF93DF93EC01A1
:100280008881882331F021960E9414018991882366
:10029000D9F7DF91CF910895823079F0833018F447
:1002A0008130C9F405C0833069F08430A1F40FC0F7
:1002B000862F81580E94D8000895862F81540E946D
:1002C000D8000895862F8D560E94D8000895862F55
:1002D0008D520E94D80008950F931F93CF93DF9300
:1002E0008A01E901882311F0662319F40E9439017B
:1002F00002C00E944C01C530D10571F4C80160E113
:1003000077E20E944803CB01C09690930802809345
:1003100007020E94140103C0C430D105B9F4C8011A
:1003200068EE73E00E944803CB0170930A02609369
:1003300009026AE070E00E944803C096909313029D
:10034000809312020E94140181E001C080E0C3305A
:10035000D10511F08130B1F4C80164E670E00E946B
:100360004803CB0170930A02609309026AE070E0CF
:100370000E944803C09690930F0280930E020E9441
:10038000140181E0C230D10511F08130B1F42AE0CE
:1003900030E0C801B9010E944803CB0170930A0202
:1003A00060930902B9010E944803C09690930D0220
:1003B00080930C020E94140181E0C130D10511F03C
:1003C000813061F4C8016AE070E00E944803C09681
:1003D00090931102809310020E941401C630D1053F
:1003E0001CF085E40E941401DF91CF911F910F91C1
:1003F000089587B1876F87B988B1807888B90895E3
:1004000010BA11BA1092070110920801089581B133
:100410008F6081B982B1807F82B9EAE0F1E08081AA
:1004200088618083EBE0F1E08081886180830895BA
:100430003B9A439808950E94F9010E9400020E948D
:1004400007020E9418020895E1E2F1E010828FEFA6
:100450008093250191E090932401109229018093CB
:10046000280110922B0180932A0110922D01809374
:100470002C0189EA809320018BE08083089586B166
:10048000886088B9089586B1877F88B90895EAE7BA
:10049000F0E0108210927B0080E280937C0080E884
:1004A00080BF86E880830895883018F098E09093A4
:1004B0007B008770806280937C00EAE7F0E08081B7
:1004C00080648083808184FFFDCF80917900EAE79A
:1004D000F0E090819061908310927B000895CF931B
:1004E000DF93D82FC62F842F0E945402482F809369
:1004F0000B028D2F6C2F50E023E030E00E946C0146
:10050000DF91CF9108958093280160932A01089587
:1005100092B1907F8F70982B92B9089586E00E94D7
:100520008802089580E00E9488020895F8940E944D
:100530001B020E9447020E942402789408950E94A0
:1005400096020E9495000E94FD0083E00E945402E2
:100550008093040282E00E9454028093030281E0AF
:100560000E945402809302028BE00E945402809306
:10057000010286E00E94540280930002109206025B
:100580001092050281E061E043E00E946F0281E089
:1005900065E042E00E946F0281E069E041E00E9474
:1005A0006F0282E064E04BE00E946F0282E068E04C
:1005B00046E00E946F0280910102833820F480910E
:1005C0000002803F38F481E0809305020E9492028D
:1005D0000E943F0280910302883278F480910502E4
:1005E000882359F481E0809306020E9443020E940E
:1005F0008E0286E966E90E948302809104028932B4
:1006000098F080910602882379F48091050288236E
:1006100059F481E0809306020E9443020E948E02F8
:1006200086E962E30E94830280910202893298F097
:1006300080910602882379F480910502882359F479
:1006400081E0809306020E9443020E948E0282E3B0
:1006500066E90E94830280910302893208F475CF13
:1006600080910402893208F470CF809102028932AD
:1006700008F46BCF80910502882309F066CF0E94B1
:1006800043020E948E0280E060E00E9483025DCF00
:10069000AA1BBB1B51E107C0AA1FBB1FA617B707A8
:1006A00010F0A61BB70B881F991F5A95A9F78095C4
:0C06B0009095BC01CD010895F894FFCF97
:00000001FF
