:100000000C9472000C9493000C9493000C94930045
:100010000C9493000C9493000C9493000C94930014
:100020000C9493000C9493000C9493000C94930004
:100030000C9493000C9493000C9493000C949300F4
:100040000C9493000C9493000C9493000C949300E4
:100050000C9493000C9493000C9493000C949300D4
:100060000C9493000C9493000C9493000C949300C4
:100070000C9493000C9493000C9493000C949300B4
:100080000C9493000C9493000C9493000C949300A4
:100090000C9493000C9493000C9493000C94930094
:1000A0000C9493000C9493000C9493000C94930084
:1000B0000C9493000C9493000C9493000C94930074
:1000C0000C9493000C9493000C9493000C94930064
:1000D0000C9493000C9493000C9493000C94930054
:1000E0000C94930011241FBECFEFD1E2DEBFCDBF31
:1000F00000E00CBF12E0A0E0B2E0EEEDF5E000E0C1
:100100000BBF02C007900D92A030B107D9F712E0E3
:10011000A0E0B2E001C01D92A030B107E1F70E945B
:100120002F010C94ED020C940000259A2D9A08954D
:10013000269A2E9A0895279A2F9A08950E9495003C
:100140000E9498000E949B000895E1E8F0E0108270
:100150008CEF8093850081E08093840093E09093FE
:1001600089008FEF8093880090938B0080938A00A2
:1001700090938D0080938C009093870080938600ED
:100180008BEA80938000109282008CE08083089537
:10019000F8940E949E000E94A50078940895109201
:1001A0008900682F70E080E090E00E945F022BE7FA
:1001B00034E14EEE5FE30E94CB0120E030E04CE002
:1001C00052E40E9467010E94330260938800089500
:1001D00010928B00682F70E080E090E00E945F0238
:1001E0002BE734E14EEE5FE30E94CB0120E030E0EC
:1001F0004CE052E40E9467010E94330260938A003F
:10020000089510928D00682F70E080E090E00E94C9
:100210005F022BE734E14EEE5FE30E94CB0120E06A
:1002200030E04CE052E40E9467010E943302609388
:100230008C00089583E0809389008FEF809388007D
:10024000089583E080938B008FEF80938A00089558
:1002500083E080938D008FEF80938C0008950E943F
:10026000C800C0E08C2F0E94CF0089E999E5A1E089
:1002700081509040A040E1F700008C2F0E94E800E0
:1002800089E999E5A1E081509040A040E1F70000A4
:100290008C2F0E94010189E999E5A1E081509040ED
:1002A000A040E1F70000CF5FCA35E1F68FEF9FEF86
:1002B000A9E581509040A040E1F700C000000E94F5
:1002C0001A010E9421010E942801FFCF5058BB272C
:1002D000AA270ED048C139D130F03ED120F031F4F8
:1002E0009F3F11F41EF42EC10EF4E095E7FB24C1EC
:1002F000E92F4AD180F3BA1762077307840795077D
:1003000018F071F49EF562C10EF4E0950B2EBA2F31
:10031000A02D0B01B90190010C01CA01A00111240B
:10032000FF27591B99F0593F50F4503E68F11A16B7
:10033000F040A22F232F342F4427585FF3CF469548
:1003400037952795A795F0405395C9F77EF41F166A
:10035000BA0B620B730B840BBAF09150A1F0FF0F34
:10036000BB1F661F771F881FC2F70EC0BA0F621F20
:10037000731F841F48F4879577956795B795F79510
:100380009E3F08F0B3CF9395880F08F09927EE0FA2
:100390009795879508950CD0E6C0DED040F0D5D073
:1003A00030F021F45F3F19F0C7C0511110C1CAC02D
:1003B000EBD098F39923C9F35523B1F3951B550B53
:1003C000BB27AA2762177307840738F09F5F5F4F28
:1003D000220F331F441FAA1FA9F333D00E2E3AF069
:1003E000E0E830D091505040E695001CCAF729D083
:1003F000FE2F27D0660F771F881FBB1F26173707D2
:100400004807AB07B0E809F0BB0B802DBF01FF2701
:1004100093585F4F2AF09E3F510568F08DC0D7C0BA
:100420005F3FECF3983EDCF3869577956795B7953B
:10043000F7959F5FC9F7880F911D9695879597F956
:100440000895E1E0660F771F881FBB1F62177307CF
:100450008407BA0720F0621B730B840BBA0BEE1FE4
:1004600088F7E095089598D088F09F5790F0B92FBD
:100470009927B751A0F0D1F0660F771F881F991FF9
:100480001AF0BA95C9F712C0B13081F09FD0B1E02F
:1004900008959CC0672F782F8827B85F39F0B93F3F
:1004A000CCF3869577956795B395D9F73EF49095FB
:1004B0008095709561957F4F8F4F9F4F0895E89479
:1004C00009C097FB3EF490958095709561957F4F9C
:1004D0008F4F9F4F9923A9F0F92F96E9BB2793954A
:1004E000F695879577956795B795F111F8CFFAF45A
:1004F000BB0F11F460FF1BC06F5F7F4F8F4F9F4F8B
:1005000016C0882311F096E911C0772321F09EE8E8
:10051000872F762F05C0662371F096E8862F70E04E
:1005200060E02AF09A95660F771F881FDAF7880F28
:100530009695879597F9089597F99F6780E870E0F9
:1005400060E008959FEF80EC089500240A94161649
:10055000170618060906089500240A9412161306B1
:10056000140605060895092E0394000C11F488233F
:1005700052F0BB0F40F4BF2B11F460FF04C06F5F5B
:100580007F4F8F4F9F4F089557FD9058440F551F31
:1005900059F05F3F71F04795880F97FB991F61F005
:1005A0009F3F79F087950895121613061406551F7C
:1005B000F2CF4695F1DF08C0161617061806991FE8
:1005C000F1CF86957105610508940895E894BB27DD
:0E05D00066277727CB0197F90895F894FFCF9F
:00000001FF
