:100000000C9472000C9493000C9493000C94930045
:100010000C9493000C94EA000C94C5000C9493008B
:100020000C9493000C9493000C9493000C94930004
:100030000C9493000C9493000C9493000C949300F4
:100040000C9493000C9493000C9493000C949300E4
:100050000C9493000C9493000C9493000C949300D4
:100060000C9493000C9493000C9493000C949300C4
:100070000C9493000C9493000C9493000C949300B4
:100080000C9493000C9493000C9493000C949300A4
:100090000C9493000C9493000C9493000C94930094
:1000A0000C9493000C9493000C9493000C94930084
:1000B0000C9493000C9493000C9493000C94930074
:1000C0000C9493000C9493000C9493000C94930064
:1000D0000C9493000C9493000C9493000C94930054
:1000E0000C94930011241FBECFEFD1E2DEBFCDBF31
:1000F00000E00CBF12E0A0E0B2E0E0E7F7E000E0D3
:100100000BBF02C007900D92A030B107D9F712E0E3
:10011000A0E0B2E001C01D92AA30B107E1F70E9451
:1001200019020C94B6030C94000081B18F6081B960
:1001300082B1807F82B9EAE0F1E0808188618083CA
:10014000EBE0F1E080818861808308956C98749A77
:1001500008956D98759A08950E9495000E94A600D2
:100160000E94A9000895F894EAE6F0E08081826098
:100170008083EC9A78940895F894EAE6F0E0808120
:1001800088608083ED9A789408951F920F920FB63D
:100190000F9211248F939F93AF93BF93809100028E
:1001A00090910102A0910202B09103020196A11D5B
:1001B000B11D8093000290930102A0930202B093BC
:1001C0000302BF91AF919F918F910F900FBE0F903F
:1001D0001F9018951F920F920FB60F9211248F93B4
:1001E0009F93AF93BF938091040290910502A091D9
:1001F0000602B09107020196A11DB11D8093040271
:1002000090930502A0930602B0930702BF91AF91AD
:100210009F918F910F900FBE0F901F90189592B1E4
:10022000907F8F70982B92B9089586E00E940F01FD
:10023000089589E00E940F01089585E00E940F0152
:1002400008958AE00E940F01089584E00E940F0142
:10025000089582E00E940F01089581E00E940F013D
:10026000089588E00E940F01089580E00E940F0128
:1002700008950F931F93CF93BC0180E090E00E94FC
:10028000280328E431EE42E850E40E9494020E94E0
:10029000FC02DC01CB01A0E0B0E010920002109261
:1002A00001021092020210920302109204021092B4
:1002B00005021092060210920702F1E0C0E04091A0
:1002C00000025091010260910202709103020091BC
:1002D0000402109105022091060230910702EF2FCF
:1002E000481759076A077B0708F4EC2FEE2349F4F7
:1002F0004F2F081719072A073B0708F44C2F4423F0
:10030000F1F20E943501CF911F910F910895BC0128
:1003100080E090E00E94280325EE30ED4AEA50E4A8
:100320000E9494020E94FC02462F572F682F792FBB
:100330001092000210920102109202021092030227
:100340008091000290910102A0910202B0910302FB
:10035000481759076A077B0798F70E9435010895E7
:10036000CF93DF93EC010E941501CE010E9487011B
:10037000DF91CF910895CF93DF93EC010E94190193
:10038000CE010E948701DF91CF910895CF93DF9333
:10039000EC010E941D01CE010E943901DF91CF9135
:1003A0000895CF93DF93EC010E942101CE010E94BA
:1003B0003901DF91CF910895CF93DF93EC010E9433
:1003C0002501CE01880F991F0E943901DF91CF913D
:1003D0000895CF93DF93EC010E942901CE01880F8D
:1003E000991F0E943901DF91CF910895CF93DF9338
:1003F000EC010E942D01CE01880F991F0E94390146
:10040000DF91CF910895CF93DF93EC010E943101EA
:10041000CE01880F991F0E943901DF91CF91089575
:10042000F8940E94AC000E94B3000E94BC00789433
:1004300008950E94100284E690E00E94B0010E949C
:1004400035018FEF9FE7A6E181509040A040E1F792
:1004500000C0000084E690E00E94BB010E943501CC
:100460008FEF9FE7A6E181509040A040E1F700C0E8
:1004700000008AE590E00E94C6010E9435018FEFDE
:100480009FE7A6E181509040A040E1F700C0000046
:100490008AE590E00E94D1010E9435018FEF9FE72D
:1004A000A6E181509040A040E1F700C000008AE53D
:1004B00090E00E94DC010E9435018FEF9FE7A6E1EA
:1004C00081509040A040E1F700C000008AE590E034
:1004D0000E94E9010E9435018FEF9FE7A6E181505C
:1004E0009040A040E1F700C000008AE590E00E9443
:1004F000F6010E9435018FEF9FE7A6E18150904001
:10050000A040E1F700C000008AE590E00E940302ED
:100510000E9435018FEF9FE7A6E181509040A040F7
:10052000E1F700C0000087CF0CD0E6C0DED040F07D
:10053000D5D030F021F45F3F19F0C7C0511110C180
:10054000CAC0EBD098F39923C9F35523B1F3951B97
:10055000550BBB27AA2762177307840738F09F5FE4
:100560005F4F220F331F441FAA1FA9F333D00E2E53
:100570003AF0E0E830D091505040E695001CCAF7C0
:1005800029D0FE2F27D0660F771F881FBB1F261785
:1005900037074807AB07B0E809F0BB0B802DBF0158
:1005A000FF2793585F4F2AF09E3F510568F08DC09A
:1005B000D7C05F3FECF3983EDCF38695779567955F
:1005C000B795F7959F5FC9F7880F911D9695879509
:1005D00097F90895E1E0660F771F881FBB1F621728
:1005E00073078407BA0720F0621B730B840BBA0BE6
:1005F000EE1F88F7E095089598D088F09F5790F007
:10060000B92F9927B751A0F0D1F0660F771F881F37
:10061000991F1AF0BA95C9F712C0B13081F09FD076
:10062000B1E008959CC0672F782F8827B85F39F014
:10063000B93FCCF3869577956795B395D9F73EF496
:1006400090958095709561957F4F8F4F9F4F08953E
:10065000E89409C097FB3EF490958095709561955C
:100660007F4F8F4F9F4F9923A9F0F92F96E9BB2712
:100670009395F695879577956795B795F111F8CF8E
:10068000FAF4BB0F11F460FF1BC06F5F7F4F8F4FF9
:100690009F4F16C0882311F096E911C0772321F0EF
:1006A0009EE8872F762F05C0662371F096E8862F87
:1006B00070E060E02AF09A95660F771F881FDAF7DE
:1006C000880F9695879597F9089597F99F6780E821
:1006D00070E060E008959FEF80EC089500240A9494
:1006E0001616170618060906089500240A9412160D
:1006F0001306140605060895092E0394000C11F440
:10070000882352F0BB0F40F4BF2B11F460FF04C0EC
:100710006F5F7F4F8F4F9F4F089557FD9058440F45
:10072000551F59F05F3F71F04795880F97FB991F50
:1007300061F09F3F79F0879508951216130614060D
:10074000551FF2CF4695F1DF08C01616170618069A
:10075000991FF1CF86957105610508940895E89475
:10076000BB2766277727CB0197F90895F894FFCF29
:00000001FF
